{
  "contractName": "Voting",
  "abi": [
    {
      "inputs": [],
      "stateMutability": "nonpayable",
      "type": "constructor"
    },
    {
      "anonymous": false,
      "inputs": [
        {
          "indexed": true,
          "internalType": "uint256",
          "name": "candidateId",
          "type": "uint256"
        }
      ],
      "name": "VotedEvent",
      "type": "event"
    },
    {
      "anonymous": false,
      "inputs": [
        {
          "indexed": true,
          "internalType": "bytes32",
          "name": "voterHash",
          "type": "bytes32"
        }
      ],
      "name": "VoterRegistered",
      "type": "event"
    },
    {
      "inputs": [
        {
          "internalType": "uint256",
          "name": "",
          "type": "uint256"
        }
      ],
      "name": "candidates",
      "outputs": [
        {
          "internalType": "uint256",
          "name": "id",
          "type": "uint256"
        },
        {
          "internalType": "string",
          "name": "name",
          "type": "string"
        },
        {
          "internalType": "uint256",
          "name": "voteCount",
          "type": "uint256"
        }
      ],
      "stateMutability": "view",
      "type": "function",
      "constant": true
    },
    {
      "inputs": [],
      "name": "candidatesCount",
      "outputs": [
        {
          "internalType": "uint256",
          "name": "",
          "type": "uint256"
        }
      ],
      "stateMutability": "view",
      "type": "function",
      "constant": true
    },
    {
      "inputs": [
        {
          "internalType": "address",
          "name": "",
          "type": "address"
        }
      ],
      "name": "hasVoted",
      "outputs": [
        {
          "internalType": "bool",
          "name": "",
          "type": "bool"
        }
      ],
      "stateMutability": "view",
      "type": "function",
      "constant": true
    },
    {
      "inputs": [
        {
          "internalType": "bytes32",
          "name": "",
          "type": "bytes32"
        }
      ],
      "name": "registeredVoters",
      "outputs": [
        {
          "internalType": "bool",
          "name": "",
          "type": "bool"
        }
      ],
      "stateMutability": "view",
      "type": "function",
      "constant": true
    },
    {
      "inputs": [],
      "name": "totalVotes",
      "outputs": [
        {
          "internalType": "uint256",
          "name": "",
          "type": "uint256"
        }
      ],
      "stateMutability": "view",
      "type": "function",
      "constant": true
    },
    {
      "inputs": [
        {
          "internalType": "string",
          "name": "voterId",
          "type": "string"
        }
      ],
      "name": "registerVoter",
      "outputs": [],
      "stateMutability": "nonpayable",
      "type": "function"
    },
    {
      "inputs": [
        {
          "internalType": "string",
          "name": "voterId",
          "type": "string"
        },
        {
          "internalType": "uint256",
          "name": "candidateId",
          "type": "uint256"
        }
      ],
      "name": "vote",
      "outputs": [],
      "stateMutability": "nonpayable",
      "type": "function"
    },
    {
      "inputs": [],
      "name": "getCandidates",
      "outputs": [
        {
          "components": [
            {
              "internalType": "uint256",
              "name": "id",
              "type": "uint256"
            },
            {
              "internalType": "string",
              "name": "name",
              "type": "string"
            },
            {
              "internalType": "uint256",
              "name": "voteCount",
              "type": "uint256"
            }
          ],
          "internalType": "struct Voting.Candidate[]",
          "name": "",
          "type": "tuple[]"
        }
      ],
      "stateMutability": "view",
      "type": "function",
      "constant": true
    }
  ],
  "bytecode": "0x60806040523480156200001157600080fd5b5060408051808201909152600681526544656570616b60d01b60208201526200003a9062000067565b604080518082019091526005815264426875766960d81b6020820152620000619062000067565b6200026c565b600380549060006200007983620000d3565b90915550506040805160608101825260035480825260208083018581526000848601819052928352908290529290208151815591519091906001820190620000c29082620001a0565b506040820151816002015590505050565b600060018201620000f457634e487b7160e01b600052601160045260246000fd5b5060010190565b634e487b7160e01b600052604160045260246000fd5b600181811c908216806200012657607f821691505b6020821081036200014757634e487b7160e01b600052602260045260246000fd5b50919050565b601f8211156200019b57600081815260208120601f850160051c81016020861015620001765750805b601f850160051c820191505b81811015620001975782815560010162000182565b5050505b505050565b81516001600160401b03811115620001bc57620001bc620000fb565b620001d481620001cd845462000111565b846200014d565b602080601f8311600181146200020c5760008415620001f35750858301515b600019600386901b1c1916600185901b17855562000197565b600085815260208120601f198616915b828110156200023d578886015182559484019460019091019084016200021c565b50858210156200025c5787850151600019600388901b60f8161c191681555b5050505050600190811b01905550565b61096d806200027c6000396000f3fe608060405234801561001057600080fd5b50600436106100885760003560e01c80632d35a8a21161005b5780632d35a8a2146101185780633477ee2e146101215780636428a48614610143578063a63858031461015857600080fd5b806306a49fce1461008d57806307ba279a146100ab57806309eef43e146100de5780630d15fd7714610101575b600080fd5b61009561016b565b6040516100a29190610671565b60405180910390f35b6100ce6100b93660046106f2565b60016020526000908152604090205460ff1681565b60405190151581526020016100a2565b6100ce6100ec36600461070b565b60026020526000908152604090205460ff1681565b61010a60045481565b6040519081526020016100a2565b61010a60035481565b61013461012f3660046106f2565b6102ed565b6040516100a29392919061073b565b610156610151366004610807565b610398565b005b610156610166366004610844565b61046f565b6060600060035467ffffffffffffffff81111561018a5761018a610764565b6040519080825280602002602001820160405280156101df57816020015b6101cc60405180606001604052806000815260200160608152602001600081525090565b8152602001906001900390816101a85790505b50905060015b60035481116102e7576000818152602081815260409182902082516060810190935280548352600181018054919284019161021f90610889565b80601f016020809104026020016040519081016040528092919081815260200182805461024b90610889565b80156102985780601f1061026d57610100808354040283529160200191610298565b820191906000526020600020905b81548152906001019060200180831161027b57829003601f168201915b50505050508152602001600282015481525050826001836102b991906108d3565b815181106102c9576102c96108ec565b602002602001018190525080806102df90610902565b9150506101e5565b50919050565b6000602081905290815260409020805460018201805491929161030f90610889565b80601f016020809104026020016040519081016040528092919081815260200182805461033b90610889565b80156103885780601f1061035d57610100808354040283529160200191610388565b820191906000526020600020905b81548152906001019060200180831161036b57829003601f168201915b5050505050908060020154905083565b6000816040516020016103ab919061091b565b60408051601f1981840301815291815281516020928301206000818152600190935291205490915060ff16156104285760405162461bcd60e51b815260206004820152601960248201527f566f74657220616c726561647920726567697374657265642e0000000000000060448201526064015b60405180910390fd5b6000818152600160208190526040808320805460ff19169092179091555182917fe1e93aab4d6cae623ae197f9c4d63ac5eede4c69f9d0fbc92e4dbb0766abd11591a25050565b600082604051602001610482919061091b565b60408051601f1981840301815291815281516020928301206000818152600190935291205490915060ff166104f15760405162461bcd60e51b81526020600482015260156024820152742b37ba32b9103737ba103932b3b4b9ba32b932b21760591b604482015260640161041f565b3360009081526002602052604090205460ff16156105515760405162461bcd60e51b815260206004820152601760248201527f596f75206861766520616c726561647920766f7465642e000000000000000000604482015260640161041f565b60008211801561056357506003548211155b6105a45760405162461bcd60e51b815260206004820152601260248201527124b73b30b634b21031b0b73234b230ba329760711b604482015260640161041f565b336000908152600260208181526040808420805460ff19166001179055858452908390528220018054916105d783610902565b9091555050600480549060006105ec83610902565b909155505060405182907fe447c5464cb203c1da94b4db8588d3cbf313ce4a489122f6b88e87f465b2810e90600090a2505050565b60005b8381101561063c578181015183820152602001610624565b50506000910152565b6000815180845261065d816020860160208601610621565b601f01601f19169290920160200192915050565b60006020808301818452808551808352604092508286019150828160051b87010184880160005b838110156106e457603f19898403018552815160608151855288820151818a8701526106c682870182610645565b92890151958901959095525094870194925090860190600101610698565b509098975050505050505050565b60006020828403121561070457600080fd5b5035919050565b60006020828403121561071d57600080fd5b81356001600160a01b038116811461073457600080fd5b9392505050565b8381526060602082015260006107546060830185610645565b9050826040830152949350505050565b634e487b7160e01b600052604160045260246000fd5b600082601f83011261078b57600080fd5b813567ffffffffffffffff808211156107a6576107a6610764565b604051601f8301601f19908116603f011681019082821181831017156107ce576107ce610764565b816040528381528660208588010111156107e757600080fd5b836020870160208301376000602085830101528094505050505092915050565b60006020828403121561081957600080fd5b813567ffffffffffffffff81111561083057600080fd5b61083c8482850161077a565b949350505050565b6000806040838503121561085757600080fd5b823567ffffffffffffffff81111561086e57600080fd5b61087a8582860161077a565b95602094909401359450505050565b600181811c9082168061089d57607f821691505b6020821081036102e757634e487b7160e01b600052602260045260246000fd5b634e487b7160e01b600052601160045260246000fd5b818103818111156108e6576108e66108bd565b92915050565b634e487b7160e01b600052603260045260246000fd5b600060018201610914576109146108bd565b5060010190565b6000825161092d818460208701610621565b919091019291505056fea2646970667358221220e0c6d82e693f0abd96bfe3955e24917f3eaa33fbb6776dc4c02fec93faea47f864736f6c63430008150033",
  "immutableReferences": {},
  "source": "// SPDX-License-Identifier: MIT \r\npragma solidity ^0.8.0;\r\n\r\ncontract Voting {\r\n    struct Candidate {\r\n        uint id;\r\n        string name;\r\n        uint voteCount;\r\n    }\r\n\r\n    mapping(uint => Candidate) public candidates;\r\n    mapping(bytes32 => bool) public registeredVoters;\r\n    mapping(address => bool) public hasVoted;\r\n    uint public candidatesCount;\r\n    uint public totalVotes;\r\n\r\n    event VoterRegistered(bytes32 indexed voterHash);\r\n    event VotedEvent(uint indexed candidateId);\r\n\r\n    constructor() {\r\n        addCandidate(\"Deepak\");\r\n        addCandidate(\"Bhuvi\");\r\n    }\r\n\r\n    function addCandidate(string memory _name) private {\r\n        candidatesCount++;\r\n        candidates[candidatesCount] = Candidate(candidatesCount, _name, 0);\r\n    }\r\n\r\n    function registerVoter(string memory voterId) public {\r\n        bytes32 voterHash = keccak256(abi.encodePacked(voterId));\r\n        require(!registeredVoters[voterHash], \"Voter already registered.\");\r\n        registeredVoters[voterHash] = true;\r\n        emit VoterRegistered(voterHash);\r\n    }\r\n\r\n    function vote(string memory voterId, uint candidateId) public {\r\n        bytes32 voterHash = keccak256(abi.encodePacked(voterId));\r\n        require(registeredVoters[voterHash], \"Voter not registered.\");\r\n        require(!hasVoted[msg.sender], \"You have already voted.\");\r\n        require(candidateId > 0 && candidateId <= candidatesCount, \"Invalid candidate.\");\r\n\r\n        hasVoted[msg.sender] = true;\r\n        candidates[candidateId].voteCount++;\r\n        totalVotes++;\r\n\r\n        emit VotedEvent(candidateId);\r\n    }\r\n\r\n    function getCandidates() public view returns (Candidate[] memory) {\r\n        Candidate[] memory candidateList = new Candidate[](candidatesCount);\r\n        for (uint i = 1; i <= candidatesCount; i++) {\r\n            candidateList[i - 1] = candidates[i];\r\n        }\r\n        return candidateList;\r\n    }\r\n}\r\n",
  "sourcePath": "E:\\Git Repo\\DApp\\contracts\\Voting.sol",
  "compiler": {
    "name": "solc",
    "version": "0.8.21+commit.d9974bed.Emscripten.clang"
  },
  "schemaVersion": "3.4.16",
  "updatedAt": "2024-12-09T07:32:00.164Z",
  "networkType": "ethereum",
  "devdoc": {
    "kind": "dev",
    "methods": {},
    "version": 1
  },
  "userdoc": {
    "kind": "user",
    "methods": {},
    "version": 1
  }
}